{
  "_format": "hh-sol-artifact-1",
  "contractName": "BankV7",
  "sourceName": "contracts/BankV7.sol",
  "abi": [
    {
      "inputs": [],
      "stateMutability": "nonpayable",
      "type": "constructor"
    },
    {
      "inputs": [
        {
          "internalType": "address",
          "name": "user",
          "type": "address"
        }
      ],
      "name": "AccountAlreadyApproved",
      "type": "error"
    },
    {
      "inputs": [
        {
          "internalType": "address",
          "name": "user",
          "type": "address"
        }
      ],
      "name": "AccountBlocked",
      "type": "error"
    },
    {
      "inputs": [
        {
          "internalType": "address",
          "name": "target",
          "type": "address"
        }
      ],
      "name": "AddressEmptyCode",
      "type": "error"
    },
    {
      "inputs": [
        {
          "internalType": "uint256",
          "name": "currentAge",
          "type": "uint256"
        },
        {
          "internalType": "uint256",
          "name": "minimumAge",
          "type": "uint256"
        }
      ],
      "name": "AgeNotAllowed",
      "type": "error"
    },
    {
      "inputs": [
        {
          "internalType": "uint256",
          "name": "requested",
          "type": "uint256"
        },
        {
          "internalType": "uint256",
          "name": "fee",
          "type": "uint256"
        }
      ],
      "name": "AmountDoesNotCoverFee",
      "type": "error"
    },
    {
      "inputs": [
        {
          "internalType": "address",
          "name": "implementation",
          "type": "address"
        }
      ],
      "name": "ERC1967InvalidImplementation",
      "type": "error"
    },
    {
      "inputs": [],
      "name": "ERC1967NonPayable",
      "type": "error"
    },
    {
      "inputs": [],
      "name": "FailedCall",
      "type": "error"
    },
    {
      "inputs": [
        {
          "internalType": "uint256",
          "name": "requested",
          "type": "uint256"
        },
        {
          "internalType": "uint256",
          "name": "available",
          "type": "uint256"
        }
      ],
      "name": "InsufficientBalance",
      "type": "error"
    },
    {
      "inputs": [],
      "name": "InvalidAmount",
      "type": "error"
    },
    {
      "inputs": [],
      "name": "InvalidEmptyField",
      "type": "error"
    },
    {
      "inputs": [],
      "name": "InvalidInitialization",
      "type": "error"
    },
    {
      "inputs": [],
      "name": "NoProfitsToWithdraw",
      "type": "error"
    },
    {
      "inputs": [],
      "name": "NotInitializing",
      "type": "error"
    },
    {
      "inputs": [
        {
          "internalType": "address",
          "name": "owner",
          "type": "address"
        }
      ],
      "name": "OwnableInvalidOwner",
      "type": "error"
    },
    {
      "inputs": [
        {
          "internalType": "address",
          "name": "account",
          "type": "address"
        }
      ],
      "name": "OwnableUnauthorizedAccount",
      "type": "error"
    },
    {
      "inputs": [
        {
          "internalType": "uint256",
          "name": "requested",
          "type": "uint256"
        },
        {
          "internalType": "uint256",
          "name": "available",
          "type": "uint256"
        }
      ],
      "name": "PolInsufficientLiquidity",
      "type": "error"
    },
    {
      "inputs": [
        {
          "internalType": "uint256",
          "name": "requested",
          "type": "uint256"
        },
        {
          "internalType": "uint256",
          "name": "available",
          "type": "uint256"
        }
      ],
      "name": "TokenInsufficientLiquidity",
      "type": "error"
    },
    {
      "inputs": [],
      "name": "TransferFailed",
      "type": "error"
    },
    {
      "inputs": [],
      "name": "UUPSUnauthorizedCallContext",
      "type": "error"
    },
    {
      "inputs": [
        {
          "internalType": "bytes32",
          "name": "slot",
          "type": "bytes32"
        }
      ],
      "name": "UUPSUnsupportedProxiableUUID",
      "type": "error"
    },
    {
      "anonymous": false,
      "inputs": [
        {
          "indexed": true,
          "internalType": "address",
          "name": "user",
          "type": "address"
        },
        {
          "indexed": false,
          "internalType": "uint256",
          "name": "cashValue",
          "type": "uint256"
        }
      ],
      "name": "DepositMade",
      "type": "event"
    },
    {
      "anonymous": false,
      "inputs": [
        {
          "indexed": false,
          "internalType": "uint256",
          "name": "newFeeExchange",
          "type": "uint256"
        }
      ],
      "name": "FeeExchangeUpdated",
      "type": "event"
    },
    {
      "anonymous": false,
      "inputs": [
        {
          "indexed": false,
          "internalType": "uint64",
          "name": "version",
          "type": "uint64"
        }
      ],
      "name": "Initialized",
      "type": "event"
    },
    {
      "anonymous": false,
      "inputs": [
        {
          "indexed": false,
          "internalType": "uint256",
          "name": "value",
          "type": "uint256"
        }
      ],
      "name": "LiquidityPolAdd",
      "type": "event"
    },
    {
      "anonymous": false,
      "inputs": [
        {
          "indexed": false,
          "internalType": "uint256",
          "name": "value",
          "type": "uint256"
        }
      ],
      "name": "LiquidityTokenAdd",
      "type": "event"
    },
    {
      "anonymous": false,
      "inputs": [
        {
          "indexed": true,
          "internalType": "address",
          "name": "previousOwner",
          "type": "address"
        },
        {
          "indexed": true,
          "internalType": "address",
          "name": "newOwner",
          "type": "address"
        }
      ],
      "name": "OwnershipTransferred",
      "type": "event"
    },
    {
      "anonymous": false,
      "inputs": [
        {
          "indexed": false,
          "internalType": "address",
          "name": "account",
          "type": "address"
        }
      ],
      "name": "Paused",
      "type": "event"
    },
    {
      "anonymous": false,
      "inputs": [
        {
          "indexed": true,
          "internalType": "address",
          "name": "client",
          "type": "address"
        },
        {
          "indexed": false,
          "internalType": "uint256",
          "name": "polOutGoing",
          "type": "uint256"
        },
        {
          "indexed": false,
          "internalType": "uint256",
          "name": "tokensReceived",
          "type": "uint256"
        }
      ],
      "name": "TokenBuy",
      "type": "event"
    },
    {
      "anonymous": false,
      "inputs": [
        {
          "indexed": true,
          "internalType": "address",
          "name": "client",
          "type": "address"
        },
        {
          "indexed": false,
          "internalType": "uint256",
          "name": "tokensOutGoing",
          "type": "uint256"
        },
        {
          "indexed": false,
          "internalType": "uint256",
          "name": "polReceived",
          "type": "uint256"
        }
      ],
      "name": "TokenSell",
      "type": "event"
    },
    {
      "anonymous": false,
      "inputs": [
        {
          "indexed": false,
          "internalType": "address",
          "name": "account",
          "type": "address"
        }
      ],
      "name": "Unpaused",
      "type": "event"
    },
    {
      "anonymous": false,
      "inputs": [
        {
          "indexed": true,
          "internalType": "address",
          "name": "implementation",
          "type": "address"
        }
      ],
      "name": "Upgraded",
      "type": "event"
    },
    {
      "anonymous": false,
      "inputs": [
        {
          "indexed": false,
          "internalType": "uint256",
          "name": "newWithdrawFee",
          "type": "uint256"
        }
      ],
      "name": "WithdrawFeeUpdated",
      "type": "event"
    },
    {
      "anonymous": false,
      "inputs": [
        {
          "indexed": true,
          "internalType": "address",
          "name": "user",
          "type": "address"
        },
        {
          "indexed": false,
          "internalType": "uint256",
          "name": "cashValue",
          "type": "uint256"
        }
      ],
      "name": "WithdrawMade",
      "type": "event"
    },
    {
      "inputs": [],
      "name": "UPGRADE_INTERFACE_VERSION",
      "outputs": [
        {
          "internalType": "string",
          "name": "",
          "type": "string"
        }
      ],
      "stateMutability": "view",
      "type": "function"
    },
    {
      "inputs": [],
      "name": "addLiquidityPOL",
      "outputs": [],
      "stateMutability": "payable",
      "type": "function"
    },
    {
      "inputs": [
        {
          "internalType": "uint256",
          "name": "_amount",
          "type": "uint256"
        }
      ],
      "name": "addLiquidityToken",
      "outputs": [],
      "stateMutability": "nonpayable",
      "type": "function"
    },
    {
      "inputs": [
        {
          "internalType": "address",
          "name": "_account",
          "type": "address"
        }
      ],
      "name": "approveAccount",
      "outputs": [],
      "stateMutability": "nonpayable",
      "type": "function"
    },
    {
      "inputs": [
        {
          "internalType": "address",
          "name": "",
          "type": "address"
        }
      ],
      "name": "balance",
      "outputs": [
        {
          "internalType": "uint256",
          "name": "",
          "type": "uint256"
        }
      ],
      "stateMutability": "view",
      "type": "function"
    },
    {
      "inputs": [
        {
          "internalType": "address",
          "name": "_account",
          "type": "address"
        }
      ],
      "name": "blockAccount",
      "outputs": [],
      "stateMutability": "nonpayable",
      "type": "function"
    },
    {
      "inputs": [],
      "name": "breakContract",
      "outputs": [],
      "stateMutability": "nonpayable",
      "type": "function"
    },
    {
      "inputs": [],
      "name": "buyToken",
      "outputs": [],
      "stateMutability": "payable",
      "type": "function"
    },
    {
      "inputs": [],
      "name": "deposit",
      "outputs": [],
      "stateMutability": "payable",
      "type": "function"
    },
    {
      "inputs": [],
      "name": "feeExchange",
      "outputs": [
        {
          "internalType": "uint256",
          "name": "",
          "type": "uint256"
        }
      ],
      "stateMutability": "view",
      "type": "function"
    },
    {
      "inputs": [
        {
          "internalType": "address",
          "name": "_account",
          "type": "address"
        }
      ],
      "name": "getAccountBalance",
      "outputs": [
        {
          "internalType": "uint256",
          "name": "",
          "type": "uint256"
        }
      ],
      "stateMutability": "view",
      "type": "function"
    },
    {
      "inputs": [],
      "name": "getStockTokens",
      "outputs": [
        {
          "internalType": "uint256",
          "name": "",
          "type": "uint256"
        }
      ],
      "stateMutability": "view",
      "type": "function"
    },
    {
      "inputs": [],
      "name": "getWithdrawFee",
      "outputs": [
        {
          "internalType": "uint256",
          "name": "",
          "type": "uint256"
        }
      ],
      "stateMutability": "view",
      "type": "function"
    },
    {
      "inputs": [],
      "name": "getWithdrawFeeCollected",
      "outputs": [
        {
          "internalType": "uint256",
          "name": "",
          "type": "uint256"
        }
      ],
      "stateMutability": "view",
      "type": "function"
    },
    {
      "inputs": [
        {
          "internalType": "address",
          "name": "initialOwner",
          "type": "address"
        }
      ],
      "name": "initialize",
      "outputs": [],
      "stateMutability": "nonpayable",
      "type": "function"
    },
    {
      "inputs": [
        {
          "internalType": "uint256",
          "name": "_taxaInicial",
          "type": "uint256"
        }
      ],
      "name": "initializeV2",
      "outputs": [],
      "stateMutability": "nonpayable",
      "type": "function"
    },
    {
      "inputs": [],
      "name": "initializeV3",
      "outputs": [],
      "stateMutability": "nonpayable",
      "type": "function"
    },
    {
      "inputs": [
        {
          "internalType": "address",
          "name": "",
          "type": "address"
        }
      ],
      "name": "isBlocked",
      "outputs": [
        {
          "internalType": "bool",
          "name": "",
          "type": "bool"
        }
      ],
      "stateMutability": "view",
      "type": "function"
    },
    {
      "inputs": [],
      "name": "isPaused",
      "outputs": [
        {
          "internalType": "bool",
          "name": "",
          "type": "bool"
        }
      ],
      "stateMutability": "view",
      "type": "function"
    },
    {
      "inputs": [
        {
          "internalType": "address",
          "name": "",
          "type": "address"
        }
      ],
      "name": "isWhitelisted",
      "outputs": [
        {
          "internalType": "bool",
          "name": "",
          "type": "bool"
        }
      ],
      "stateMutability": "view",
      "type": "function"
    },
    {
      "inputs": [],
      "name": "liquidityPOL",
      "outputs": [
        {
          "internalType": "uint256",
          "name": "",
          "type": "uint256"
        }
      ],
      "stateMutability": "view",
      "type": "function"
    },
    {
      "inputs": [],
      "name": "owner",
      "outputs": [
        {
          "internalType": "address",
          "name": "",
          "type": "address"
        }
      ],
      "stateMutability": "view",
      "type": "function"
    },
    {
      "inputs": [],
      "name": "proxiableUUID",
      "outputs": [
        {
          "internalType": "bytes32",
          "name": "",
          "type": "bytes32"
        }
      ],
      "stateMutability": "view",
      "type": "function"
    },
    {
      "inputs": [
        {
          "internalType": "string",
          "name": "_name",
          "type": "string"
        },
        {
          "internalType": "uint256",
          "name": "_age",
          "type": "uint256"
        },
        {
          "internalType": "string",
          "name": "_country",
          "type": "string"
        }
      ],
      "name": "registerRequest",
      "outputs": [],
      "stateMutability": "nonpayable",
      "type": "function"
    },
    {
      "inputs": [
        {
          "internalType": "uint256",
          "name": "_amount",
          "type": "uint256"
        }
      ],
      "name": "removeLiquidityPOL",
      "outputs": [],
      "stateMutability": "nonpayable",
      "type": "function"
    },
    {
      "inputs": [
        {
          "internalType": "uint256",
          "name": "_amount",
          "type": "uint256"
        }
      ],
      "name": "removeLiquidityToken",
      "outputs": [],
      "stateMutability": "nonpayable",
      "type": "function"
    },
    {
      "inputs": [],
      "name": "renounceOwnership",
      "outputs": [],
      "stateMutability": "nonpayable",
      "type": "function"
    },
    {
      "inputs": [
        {
          "internalType": "uint256",
          "name": "_amountTokens",
          "type": "uint256"
        }
      ],
      "name": "sellToken",
      "outputs": [],
      "stateMutability": "nonpayable",
      "type": "function"
    },
    {
      "inputs": [],
      "name": "tokenExchange",
      "outputs": [
        {
          "internalType": "contract IERC20",
          "name": "",
          "type": "address"
        }
      ],
      "stateMutability": "view",
      "type": "function"
    },
    {
      "inputs": [],
      "name": "totalWithdrawFeeCollected",
      "outputs": [
        {
          "internalType": "uint256",
          "name": "",
          "type": "uint256"
        }
      ],
      "stateMutability": "view",
      "type": "function"
    },
    {
      "inputs": [
        {
          "internalType": "address",
          "name": "newOwner",
          "type": "address"
        }
      ],
      "name": "transferOwnership",
      "outputs": [],
      "stateMutability": "nonpayable",
      "type": "function"
    },
    {
      "inputs": [],
      "name": "unBreakContract",
      "outputs": [],
      "stateMutability": "nonpayable",
      "type": "function"
    },
    {
      "inputs": [
        {
          "internalType": "uint256",
          "name": "_newFeeExchange",
          "type": "uint256"
        }
      ],
      "name": "updateFeeExchange",
      "outputs": [],
      "stateMutability": "nonpayable",
      "type": "function"
    },
    {
      "inputs": [
        {
          "internalType": "address",
          "name": "_newTokenAddress",
          "type": "address"
        }
      ],
      "name": "updateTokenExchange",
      "outputs": [],
      "stateMutability": "nonpayable",
      "type": "function"
    },
    {
      "inputs": [
        {
          "internalType": "uint256",
          "name": "_newFee",
          "type": "uint256"
        }
      ],
      "name": "updateWithdrawFee",
      "outputs": [],
      "stateMutability": "nonpayable",
      "type": "function"
    },
    {
      "inputs": [
        {
          "internalType": "address",
          "name": "newImplementation",
          "type": "address"
        },
        {
          "internalType": "bytes",
          "name": "data",
          "type": "bytes"
        }
      ],
      "name": "upgradeToAndCall",
      "outputs": [],
      "stateMutability": "payable",
      "type": "function"
    },
    {
      "inputs": [
        {
          "internalType": "uint256",
          "name": "_valueRequested",
          "type": "uint256"
        }
      ],
      "name": "withdraw",
      "outputs": [],
      "stateMutability": "nonpayable",
      "type": "function"
    },
    {
      "inputs": [],
      "name": "withdrawFee",
      "outputs": [
        {
          "internalType": "uint256",
          "name": "",
          "type": "uint256"
        }
      ],
      "stateMutability": "view",
      "type": "function"
    },
    {
      "inputs": [],
      "name": "withdrawFeeAdmin",
      "outputs": [],
      "stateMutability": "nonpayable",
      "type": "function"
    }
  ],
  "bytecode": "0x60a060405230608052348015610013575f80fd5b5061001c610021565b6100d3565b7ff0c57e16840df040f15088dc2f81fe391c3923bec73e23a9662efc9c229c6a00805468010000000000000000900460ff16156100715760405163f92ee8a960e01b815260040160405180910390fd5b80546001600160401b03908116146100d05780546001600160401b0319166001600160401b0390811782556040519081527fc7f505b2f371ae2175ee4913f4499e1f2633a7b5936321eed1cdaeb6115181d29060200160405180910390a15b50565b608051611ff76100f95f395f81816117c7015281816117f0015261192f0152611ff75ff3fe608060405260043610610228575f3560e01c8063920c50e611610129578063d0e30db0116100a8578063f2fde38b1161006d578063f2fde38b146105fb578063f39166a51461061a578063f89f4e7714610639578063fb7db22c14610658578063fbac395114610660575f80fd5b8063d0e30db014610580578063dad70b0b14610588578063daf635de1461059c578063e3d670d7146105bb578063e941fa78146105e6575f80fd5b8063ad3cb1cc116100ee578063ad3cb1cc146104d8578063b187bd2614610515578063b868b2e41461052e578063c4d66de814610542578063ca8ee55414610561575f80fd5b8063920c50e61461045457806393423e9c1461046857806394bac87e1461049c578063a080551f146104b1578063a4821719146104d0575f80fd5b80635b89670c116101b55780637c0a893d1161017a5780637c0a893d146103cf5780637c7b3b8c146103ee5780637dd5d0e51461040d5780638d716a34146104215780638da5cb5b14610440575f80fd5b80635b89670c1461033c578063636f61591461035b5780636e8e6c1414610392578063715018a6146103a757806371b70748146103bb575f80fd5b806338e454b1116101fb57806338e454b1146102a45780633af32abf146102b85780634f1ef286146102f657806352d1902d146103095780635b4e128c1461031d575f80fd5b80631540aa891461022c5780632397e4d71461024f5780632e1a7d4d146102705780632f6a1a2a1461028f575b5f80fd5b348015610237575f80fd5b506001545b6040519081526020015b60405180910390f35b34801561025a575f80fd5b5061026e610269366004611c14565b61068e565b005b34801561027b575f80fd5b5061026e61028a366004611c14565b6108cc565b34801561029a575f80fd5b5061023c60075481565b3480156102af575f80fd5b5061026e610ad9565b3480156102c3575f80fd5b506102e66102d2366004611c46565b60056020525f908152604090205460ff1681565b6040519015158152602001610246565b61026e610304366004611ced565b610b9b565b348015610314575f80fd5b5061023c610bba565b348015610328575f80fd5b5061026e610337366004611c14565b610bd5565b348015610347575f80fd5b5061026e610356366004611c14565b610c95565b348015610366575f80fd5b5060065461037a906001600160a01b031681565b6040516001600160a01b039091168152602001610246565b34801561039d575f80fd5b5061023c60025481565b3480156103b2575f80fd5b5061026e610d85565b3480156103c6575f80fd5b5061023c610d98565b3480156103da575f80fd5b5061026e6103e9366004611c46565b610da8565b3480156103f9575f80fd5b5061026e610408366004611d69565b610de8565b348015610418575f80fd5b5061023c610efe565b34801561042c575f80fd5b5061026e61043b366004611c14565b610f6d565b34801561044b575f80fd5b5061037a611034565b34801561045f575f80fd5b5061026e611062565b348015610473575f80fd5b5061023c610482366004611c46565b6001600160a01b03165f9081526020819052604090205490565b3480156104a7575f80fd5b5061023c60085481565b3480156104bc575f80fd5b5061026e6104cb366004611c14565b6110aa565b61026e611196565b3480156104e3575f80fd5b50610508604051806040016040528060058152602001640352e302e360dc1b81525081565b6040516102469190611dd1565b348015610520575f80fd5b506004546102e69060ff1681565b348015610539575f80fd5b5061026e6113b9565b34801561054d575f80fd5b5061026e61055c366004611c46565b6113f3565b34801561056c575f80fd5b5061026e61057b366004611c14565b6114ec565b61026e611530565b348015610593575f80fd5b5061026e6115fb565b3480156105a7575f80fd5b5061026e6105b6366004611c14565b611640565b3480156105c6575f80fd5b5061023c6105d5366004611c46565b5f6020819052908152604090205481565b3480156105f1575f80fd5b5061023c60015481565b348015610606575f80fd5b5061026e610615366004611c46565b61167d565b348015610625575f80fd5b5061026e610634366004611c46565b6116ba565b348015610644575f80fd5b5061026e610653366004611c46565b6116e4565b61026e611724565b34801561066b575f80fd5b506102e661067a366004611c46565b60096020525f908152604090205460ff1681565b60045460ff16156106ba5760405162461bcd60e51b81526004016106b190611e1d565b60405180910390fd5b335f9081526005602052604090205460ff166106e85760405162461bcd60e51b81526004016106b190611e7a565b60035460020361070a5760405162461bcd60e51b81526004016106b190611ec4565b60026003555f8190036107305760405163162908e360e11b815260040160405180910390fd5b5f6007548261073f9190611f0f565b90508060085410156107725760085460405163f6a9b92160e01b81526106b1918391600401918252602082015260400190565b6006546040516323b872dd60e01b8152336004820152306024820152604481018490525f916001600160a01b0316906323b872dd906064016020604051808303815f875af11580156107c6573d5f803e3d5ffd5b505050506040513d601f19601f820116820180604052508101906107ea9190611f2e565b90508061080a576040516312171d8360e31b815260040160405180910390fd5b8160085f82825461081b9190611f4d565b90915550506040515f90339084908381818185875af1925050503d805f811461085f576040519150601f19603f3d011682016040523d82523d5f602084013e610864565b606091505b5050905080610886576040516312171d8360e31b815260040160405180910390fd5b604080518581526020810185905233917fdd73686403cf2d37d399d32aa0be7cc16f739561af09f5ddf2ccdc238a794e98910160405180910390a2505060016003555050565b6003546002036108ee5760405162461bcd60e51b81526004016106b190611ec4565b600260035560045460ff16156109165760405162461bcd60e51b81526004016106b190611e1d565b335f9081526005602052604090205460ff166109445760405162461bcd60e51b81526004016106b190611e7a565b805f036109645760405163162908e360e11b815260040160405180910390fd5b335f908152602081905260409020548111156109ae57335f908152602081905260409081902054905163cf47918160e01b81526106b1918391600401918252602082015260400190565b600154819015610a105760015482116109e8576001546040516302a1c29f60e11b81526106b1918491600401918252602082015260400190565b6001546109f59083611f4d565b905060015460025f828254610a0a9190611f60565b90915550505b335f9081526020819052604081208054849290610a2e908490611f4d565b90915550506040515f90339083908381818185875af1925050503d805f8114610a72576040519150601f19603f3d011682016040523d82523d5f602084013e610a77565b606091505b5050905080610a99576040516312171d8360e31b815260040160405180910390fd5b60405182815233907f68fed7edf5c5c0d4c848de80a312fe0ac0b0ef3d37fc533a5c3923302d60bbe2906020015b60405180910390a25050600160035550565b60035f610ae4611792565b8054909150600160401b900460ff1680610b0c5750805467ffffffffffffffff808416911610155b15610b2a5760405163f92ee8a960e01b815260040160405180910390fd5b805468ffffffffffffffffff191667ffffffffffffffff8316908117600160401b1782556004805460ff19169055815460ff60401b191682556040519081527fc7f505b2f371ae2175ee4913f4499e1f2633a7b5936321eed1cdaeb6115181d2906020015b60405180910390a15050565b610ba36117bc565b610bac82611860565b610bb68282611868565b5050565b5f610bc3611924565b505f80516020611fa283398151915290565b60025f610be0611792565b8054909150600160401b900460ff1680610c085750805467ffffffffffffffff808416911610155b15610c265760405163f92ee8a960e01b815260040160405180910390fd5b805468ffffffffffffffffff191667ffffffffffffffff8316908117600160401b1782556001848155600355815460ff60401b191682556040519081527fc7f505b2f371ae2175ee4913f4499e1f2633a7b5936321eed1cdaeb6115181d29060200160405180910390a1505050565b610c9d61196d565b805f03610cbd5760405163162908e360e11b815260040160405180910390fd5b6006546040516323b872dd60e01b8152336004820152306024820152604481018390525f916001600160a01b0316906323b872dd906064016020604051808303815f875af1158015610d11573d5f803e3d5ffd5b505050506040513d601f19601f82011682018060405250810190610d359190611f2e565b905080610d55576040516312171d8360e31b815260040160405180910390fd5b6040518281527f07e1db18fa72b20d4bb27c6586b81c80c0747d3ab1ac37203d90761537ea9d6090602001610b8f565b610d8d61196d565b610d965f61199f565b565b5f610da161196d565b5060025490565b610db061196d565b6001600160a01b03165f908152600560209081526040808320805460ff19908116909155600990925290912080549091166001179055565b335f9081526009602052604090205460ff1615610e1a576040516328e9b38560e01b81523360048201526024016106b1565b335f9081526005602052604090205460ff1615610e4c5760405163d14875ef60e01b81523360048201526024016106b1565b60408051606081018252848152602081018490529081018290526012831015610e98576020810151604051634d025adb60e11b81526004810191909152601260248201526044016106b1565b8051515f03610eba576040516312c0155560e21b815260040160405180910390fd5b8060400151515f03610edf576040516312c0155560e21b815260040160405180910390fd5b5050335f908152600560205260409020805460ff191660011790555050565b6006546040516370a0823160e01b81523060048201525f916001600160a01b0316906370a0823190602401602060405180830381865afa158015610f44573d5f803e3d5ffd5b505050506040513d601f19601f82011682018060405250810190610f689190611f73565b905090565b610f7561196d565b806008541015610fa65760085460405163f6a9b92160e01b81526106b1918391600401918252602082015260400190565b8060085f828254610fb79190611f4d565b909155505f9050610fc6611034565b6001600160a01b0316826040515f6040518083038185875af1925050503d805f811461100d576040519150601f19603f3d011682016040523d82523d5f602084013e611012565b606091505b5050905080610bb6576040516312171d8360e31b815260040160405180910390fd5b7f9016d09d72d40fdae2fd8ceac6b6234c7706214fd39c1cd1e609a0528c199300546001600160a01b031690565b61106a61196d565b6004805460ff191690556040513381527f5db9ee0a495bf2e6ff9c91a7834c1ba4fdd244a5e8aa4e537bd38aeae4b073aa906020015b60405180910390a1565b6110b261196d565b5f6110bb610efe565b9050818110156110e85760405163035fbe7760e31b815260048101839052602481018290526044016106b1565b6006545f906001600160a01b031663a9059cbb611103611034565b6040516001600160e01b031960e084901b1681526001600160a01b039091166004820152602481018690526044016020604051808303815f875af115801561114d573d5f803e3d5ffd5b505050506040513d601f19601f820116820180604052508101906111719190611f2e565b905080611191576040516312171d8360e31b815260040160405180910390fd5b505050565b60045460ff16156111b95760405162461bcd60e51b81526004016106b190611e1d565b335f9081526005602052604090205460ff166111e75760405162461bcd60e51b81526004016106b190611e7a565b6003546002036112095760405162461bcd60e51b81526004016106b190611ec4565b6002600355345f0361122e5760405163162908e360e11b815260040160405180910390fd5b5f6007543461123d9190611f8a565b6006546040516370a0823160e01b81523060048201529192505f916001600160a01b03909116906370a0823190602401602060405180830381865afa158015611288573d5f803e3d5ffd5b505050506040513d601f19601f820116820180604052508101906112ac9190611f73565b9050818110156112d95760405163035fbe7760e31b815260048101839052602481018290526044016106b1565b3460085f8282546112ea9190611f60565b909155505060065460405163a9059cbb60e01b8152336004820152602481018490525f916001600160a01b03169063a9059cbb906044016020604051808303815f875af115801561133d573d5f803e3d5ffd5b505050506040513d601f19601f820116820180604052508101906113619190611f2e565b905080611381576040516312171d8360e31b815260040160405180910390fd5b604080513481526020810185905233917f5798ec577126413c34eec76755f7164dc2f21b7d22d79c3c2a20d321dea24ba09101610ac7565b6113c161196d565b6002545f8190036113e55760405163e23c055560e01b815260040160405180910390fd5b5f6002819055610fc6611034565b5f6113fc611792565b805490915060ff600160401b820416159067ffffffffffffffff165f811580156114235750825b90505f8267ffffffffffffffff16600114801561143f5750303b155b90508115801561144d575080155b1561146b5760405163f92ee8a960e01b815260040160405180910390fd5b845467ffffffffffffffff19166001178555831561149557845460ff60401b1916600160401b1785555b61149e86611a0f565b83156114e457845460ff60401b19168555604051600181527fc7f505b2f371ae2175ee4913f4499e1f2633a7b5936321eed1cdaeb6115181d29060200160405180910390a15b505050505050565b6114f461196d565b60078190556040518181527f82d41f9f68110f06d5028e7fd153a0a39afde6686c8fc97bd6aebf75d0e0c020906020015b60405180910390a150565b60045460ff16156115535760405162461bcd60e51b81526004016106b190611e1d565b335f9081526005602052604090205460ff166115815760405162461bcd60e51b81526004016106b190611e7a565b345f036115a15760405163162908e360e11b815260040160405180910390fd5b335f90815260208190526040812080543492906115bf908490611f60565b909155505060405134815233907fd15c9547ea5c06670c0010ce19bc32d54682a4b3801ece7f3ab0c3f17106b4bb9060200160405180910390a2565b61160361196d565b6004805460ff191660011790556040513381527f62e78cea01bee320cd4e420270b5ea74000d11b0c9f74754ebdbfc544b05a258906020016110a0565b61164861196d565b60018190556040518181527f9a1f74aeeb037eb3d45b22a56376dadd6ba6ded25ec3727e520415f6c76768a990602001611525565b61168561196d565b6001600160a01b0381166116ae57604051631e4fbdf760e01b81525f60048201526024016106b1565b6116b78161199f565b50565b6116c261196d565b600680546001600160a01b0319166001600160a01b0392909216919091179055565b6116ec61196d565b6001600160a01b03165f908152600560209081526040808320805460ff19908116600117909155600990925290912080549091169055565b61172c61196d565b345f0361174c5760405163162908e360e11b815260040160405180910390fd5b3460085f82825461175d9190611f60565b90915550506040513481527f5c2e9f6f17b4238bb661689fe71a8e7e38b2bcd795e34b4dc8680cb430c6eb95906020016110a0565b5f807ff0c57e16840df040f15088dc2f81fe391c3923bec73e23a9662efc9c229c6a005b92915050565b306001600160a01b037f000000000000000000000000000000000000000000000000000000000000000016148061184257507f00000000000000000000000000000000000000000000000000000000000000006001600160a01b03166118365f80516020611fa2833981519152546001600160a01b031690565b6001600160a01b031614155b15610d965760405163703e46dd60e11b815260040160405180910390fd5b6116b761196d565b816001600160a01b03166352d1902d6040518163ffffffff1660e01b8152600401602060405180830381865afa9250505080156118c2575060408051601f3d908101601f191682019092526118bf91810190611f73565b60015b6118ea57604051634c9c8ce360e01b81526001600160a01b03831660048201526024016106b1565b5f80516020611fa2833981519152811461191a57604051632a87526960e21b8152600481018290526024016106b1565b6111918383611a20565b306001600160a01b037f00000000000000000000000000000000000000000000000000000000000000001614610d965760405163703e46dd60e11b815260040160405180910390fd5b33611976611034565b6001600160a01b031614610d965760405163118cdaa760e01b81523360048201526024016106b1565b7f9016d09d72d40fdae2fd8ceac6b6234c7706214fd39c1cd1e609a0528c19930080546001600160a01b031981166001600160a01b03848116918217845560405192169182907f8be0079c531659141344cd1fd0a4f28419497f9722a3daafe3b4186f6b6457e0905f90a3505050565b611a17611a75565b6116b781611a9a565b611a2982611aa2565b6040516001600160a01b038316907fbc7cd75a20ee27fd9adebab32041f755214dbc6bffa90cc0225b39da2e5c2d3b905f90a2805115611a6d576111918282611b05565b610bb6611ba5565b611a7d611bc4565b610d9657604051631afcd79f60e31b815260040160405180910390fd5b611685611a75565b806001600160a01b03163b5f03611ad757604051634c9c8ce360e01b81526001600160a01b03821660048201526024016106b1565b5f80516020611fa283398151915280546001600160a01b0319166001600160a01b0392909216919091179055565b60605f611b128484611bdd565b9050808015611b3357505f3d1180611b3357505f846001600160a01b03163b115b15611b4857611b40611bf0565b9150506117b6565b8015611b7257604051639996b31560e01b81526001600160a01b03851660048201526024016106b1565b3d15611b8557611b80611c09565b611b9e565b60405163d6bda27560e01b815260040160405180910390fd5b5092915050565b3415610d965760405163b398979f60e01b815260040160405180910390fd5b5f611bcd611792565b54600160401b900460ff16919050565b5f805f835160208501865af49392505050565b6040513d81523d5f602083013e3d602001810160405290565b6040513d5f823e3d81fd5b5f60208284031215611c24575f80fd5b5035919050565b80356001600160a01b0381168114611c41575f80fd5b919050565b5f60208284031215611c56575f80fd5b611c5f82611c2b565b9392505050565b634e487b7160e01b5f52604160045260245ffd5b5f67ffffffffffffffff80841115611c9457611c94611c66565b604051601f8501601f19908116603f01168101908282118183101715611cbc57611cbc611c66565b81604052809350858152868686011115611cd4575f80fd5b858560208301375f602087830101525050509392505050565b5f8060408385031215611cfe575f80fd5b611d0783611c2b565b9150602083013567ffffffffffffffff811115611d22575f80fd5b8301601f81018513611d32575f80fd5b611d4185823560208401611c7a565b9150509250929050565b5f82601f830112611d5a575f80fd5b611c5f83833560208501611c7a565b5f805f60608486031215611d7b575f80fd5b833567ffffffffffffffff80821115611d92575f80fd5b611d9e87838801611d4b565b9450602086013593506040860135915080821115611dba575f80fd5b50611dc786828701611d4b565b9150509250925092565b5f602080835283518060208501525f5b81811015611dfd57858101830151858201604001528201611de1565b505f604082860101526040601f19601f8301168501019250505092915050565b6020808252603b908201527f454d455247454e4349413a204f2062616e636f2065737461207061757361646f60408201527f21204d6f76696d656e7461636f657320626c6f717565616461732e0000000000606082015260800190565b6020808252602a908201527f41636573736f206e656761646f3a20466163612073657520636164617374726f604082015269207072696d6569726f2160b01b606082015260800190565b6020808252601f908201527f5265656e7472616e637947756172643a207265656e7472616e742063616c6c00604082015260600190565b634e487b7160e01b5f52601160045260245ffd5b5f82611f2957634e487b7160e01b5f52601260045260245ffd5b500490565b5f60208284031215611f3e575f80fd5b81518015158114611c5f575f80fd5b818103818111156117b6576117b6611efb565b808201808211156117b6576117b6611efb565b5f60208284031215611f83575f80fd5b5051919050565b80820281158282048414176117b6576117b6611efb56fe360894a13ba1a3210667c828492db98dca3e2076cc3735a920a3ca505d382bbca264697066735822122011f7b64760d9fc9c3ddae9c8fcfd2517445910713993c7f7c632a10e6c786bad64736f6c63430008180033",
  "linkReferences": {},
  "deployedLinkReferences": {}
}