{
  "_format": "hh-sol-artifact-1",
  "contractName": "BankV6",
  "sourceName": "contracts/BankV6.sol",
  "abi": [
    {
      "inputs": [],
      "stateMutability": "nonpayable",
      "type": "constructor"
    },
    {
      "inputs": [
        {
          "internalType": "address",
          "name": "user",
          "type": "address"
        }
      ],
      "name": "AccountAlreadyApproved",
      "type": "error"
    },
    {
      "inputs": [
        {
          "internalType": "address",
          "name": "target",
          "type": "address"
        }
      ],
      "name": "AddressEmptyCode",
      "type": "error"
    },
    {
      "inputs": [
        {
          "internalType": "uint256",
          "name": "currentAge",
          "type": "uint256"
        },
        {
          "internalType": "uint256",
          "name": "minimumAge",
          "type": "uint256"
        }
      ],
      "name": "AgeNotAllowed",
      "type": "error"
    },
    {
      "inputs": [
        {
          "internalType": "uint256",
          "name": "requested",
          "type": "uint256"
        },
        {
          "internalType": "uint256",
          "name": "fee",
          "type": "uint256"
        }
      ],
      "name": "AmountDoesNotCoverFee",
      "type": "error"
    },
    {
      "inputs": [
        {
          "internalType": "address",
          "name": "implementation",
          "type": "address"
        }
      ],
      "name": "ERC1967InvalidImplementation",
      "type": "error"
    },
    {
      "inputs": [],
      "name": "ERC1967NonPayable",
      "type": "error"
    },
    {
      "inputs": [],
      "name": "FailedCall",
      "type": "error"
    },
    {
      "inputs": [
        {
          "internalType": "uint256",
          "name": "requested",
          "type": "uint256"
        },
        {
          "internalType": "uint256",
          "name": "available",
          "type": "uint256"
        }
      ],
      "name": "InsufficientBalance",
      "type": "error"
    },
    {
      "inputs": [],
      "name": "InvalidAmount",
      "type": "error"
    },
    {
      "inputs": [],
      "name": "InvalidEmptyField",
      "type": "error"
    },
    {
      "inputs": [],
      "name": "InvalidInitialization",
      "type": "error"
    },
    {
      "inputs": [],
      "name": "NoProfitsToWithdraw",
      "type": "error"
    },
    {
      "inputs": [],
      "name": "NotInitializing",
      "type": "error"
    },
    {
      "inputs": [
        {
          "internalType": "address",
          "name": "owner",
          "type": "address"
        }
      ],
      "name": "OwnableInvalidOwner",
      "type": "error"
    },
    {
      "inputs": [
        {
          "internalType": "address",
          "name": "account",
          "type": "address"
        }
      ],
      "name": "OwnableUnauthorizedAccount",
      "type": "error"
    },
    {
      "inputs": [
        {
          "internalType": "uint256",
          "name": "requested",
          "type": "uint256"
        },
        {
          "internalType": "uint256",
          "name": "available",
          "type": "uint256"
        }
      ],
      "name": "PolInsufficientLiquidity",
      "type": "error"
    },
    {
      "inputs": [
        {
          "internalType": "uint256",
          "name": "requested",
          "type": "uint256"
        },
        {
          "internalType": "uint256",
          "name": "available",
          "type": "uint256"
        }
      ],
      "name": "TokenInsufficientLiquidity",
      "type": "error"
    },
    {
      "inputs": [],
      "name": "TransferFailed",
      "type": "error"
    },
    {
      "inputs": [],
      "name": "UUPSUnauthorizedCallContext",
      "type": "error"
    },
    {
      "inputs": [
        {
          "internalType": "bytes32",
          "name": "slot",
          "type": "bytes32"
        }
      ],
      "name": "UUPSUnsupportedProxiableUUID",
      "type": "error"
    },
    {
      "anonymous": false,
      "inputs": [
        {
          "indexed": true,
          "internalType": "address",
          "name": "user",
          "type": "address"
        },
        {
          "indexed": false,
          "internalType": "uint256",
          "name": "cashValue",
          "type": "uint256"
        }
      ],
      "name": "DepositMade",
      "type": "event"
    },
    {
      "anonymous": false,
      "inputs": [
        {
          "indexed": false,
          "internalType": "uint256",
          "name": "newFeeExchange",
          "type": "uint256"
        }
      ],
      "name": "FeeExchangeUpdated",
      "type": "event"
    },
    {
      "anonymous": false,
      "inputs": [
        {
          "indexed": false,
          "internalType": "uint64",
          "name": "version",
          "type": "uint64"
        }
      ],
      "name": "Initialized",
      "type": "event"
    },
    {
      "anonymous": false,
      "inputs": [
        {
          "indexed": false,
          "internalType": "uint256",
          "name": "value",
          "type": "uint256"
        }
      ],
      "name": "LiquidityPolAdd",
      "type": "event"
    },
    {
      "anonymous": false,
      "inputs": [
        {
          "indexed": false,
          "internalType": "uint256",
          "name": "value",
          "type": "uint256"
        }
      ],
      "name": "LiquidityTokenAdd",
      "type": "event"
    },
    {
      "anonymous": false,
      "inputs": [
        {
          "indexed": true,
          "internalType": "address",
          "name": "previousOwner",
          "type": "address"
        },
        {
          "indexed": true,
          "internalType": "address",
          "name": "newOwner",
          "type": "address"
        }
      ],
      "name": "OwnershipTransferred",
      "type": "event"
    },
    {
      "anonymous": false,
      "inputs": [
        {
          "indexed": false,
          "internalType": "address",
          "name": "account",
          "type": "address"
        }
      ],
      "name": "Paused",
      "type": "event"
    },
    {
      "anonymous": false,
      "inputs": [
        {
          "indexed": true,
          "internalType": "address",
          "name": "client",
          "type": "address"
        },
        {
          "indexed": false,
          "internalType": "uint256",
          "name": "polOutGoing",
          "type": "uint256"
        },
        {
          "indexed": false,
          "internalType": "uint256",
          "name": "tokensReceived",
          "type": "uint256"
        }
      ],
      "name": "TokenBuy",
      "type": "event"
    },
    {
      "anonymous": false,
      "inputs": [
        {
          "indexed": true,
          "internalType": "address",
          "name": "client",
          "type": "address"
        },
        {
          "indexed": false,
          "internalType": "uint256",
          "name": "tokensOutGoing",
          "type": "uint256"
        },
        {
          "indexed": false,
          "internalType": "uint256",
          "name": "polReceived",
          "type": "uint256"
        }
      ],
      "name": "TokenSell",
      "type": "event"
    },
    {
      "anonymous": false,
      "inputs": [
        {
          "indexed": false,
          "internalType": "address",
          "name": "account",
          "type": "address"
        }
      ],
      "name": "Unpaused",
      "type": "event"
    },
    {
      "anonymous": false,
      "inputs": [
        {
          "indexed": true,
          "internalType": "address",
          "name": "implementation",
          "type": "address"
        }
      ],
      "name": "Upgraded",
      "type": "event"
    },
    {
      "anonymous": false,
      "inputs": [
        {
          "indexed": false,
          "internalType": "uint256",
          "name": "newWithdrawFee",
          "type": "uint256"
        }
      ],
      "name": "WithdrawFeeUpdated",
      "type": "event"
    },
    {
      "anonymous": false,
      "inputs": [
        {
          "indexed": true,
          "internalType": "address",
          "name": "user",
          "type": "address"
        },
        {
          "indexed": false,
          "internalType": "uint256",
          "name": "cashValue",
          "type": "uint256"
        }
      ],
      "name": "WithdrawMade",
      "type": "event"
    },
    {
      "inputs": [],
      "name": "UPGRADE_INTERFACE_VERSION",
      "outputs": [
        {
          "internalType": "string",
          "name": "",
          "type": "string"
        }
      ],
      "stateMutability": "view",
      "type": "function"
    },
    {
      "inputs": [],
      "name": "addLiquidityPOL",
      "outputs": [],
      "stateMutability": "payable",
      "type": "function"
    },
    {
      "inputs": [
        {
          "internalType": "uint256",
          "name": "_amount",
          "type": "uint256"
        }
      ],
      "name": "addLiquidityToken",
      "outputs": [],
      "stateMutability": "nonpayable",
      "type": "function"
    },
    {
      "inputs": [
        {
          "internalType": "address",
          "name": "_account",
          "type": "address"
        }
      ],
      "name": "approveAccount",
      "outputs": [],
      "stateMutability": "nonpayable",
      "type": "function"
    },
    {
      "inputs": [
        {
          "internalType": "address",
          "name": "",
          "type": "address"
        }
      ],
      "name": "balance",
      "outputs": [
        {
          "internalType": "uint256",
          "name": "",
          "type": "uint256"
        }
      ],
      "stateMutability": "view",
      "type": "function"
    },
    {
      "inputs": [
        {
          "internalType": "address",
          "name": "_account",
          "type": "address"
        }
      ],
      "name": "blockAccount",
      "outputs": [],
      "stateMutability": "nonpayable",
      "type": "function"
    },
    {
      "inputs": [],
      "name": "breakContract",
      "outputs": [],
      "stateMutability": "nonpayable",
      "type": "function"
    },
    {
      "inputs": [],
      "name": "buyToken",
      "outputs": [],
      "stateMutability": "payable",
      "type": "function"
    },
    {
      "inputs": [],
      "name": "deposit",
      "outputs": [],
      "stateMutability": "payable",
      "type": "function"
    },
    {
      "inputs": [],
      "name": "feeExchange",
      "outputs": [
        {
          "internalType": "uint256",
          "name": "",
          "type": "uint256"
        }
      ],
      "stateMutability": "view",
      "type": "function"
    },
    {
      "inputs": [
        {
          "internalType": "address",
          "name": "_account",
          "type": "address"
        }
      ],
      "name": "getAccountBalance",
      "outputs": [
        {
          "internalType": "uint256",
          "name": "",
          "type": "uint256"
        }
      ],
      "stateMutability": "view",
      "type": "function"
    },
    {
      "inputs": [],
      "name": "getStockTokens",
      "outputs": [
        {
          "internalType": "uint256",
          "name": "",
          "type": "uint256"
        }
      ],
      "stateMutability": "view",
      "type": "function"
    },
    {
      "inputs": [],
      "name": "getWithdrawFee",
      "outputs": [
        {
          "internalType": "uint256",
          "name": "",
          "type": "uint256"
        }
      ],
      "stateMutability": "view",
      "type": "function"
    },
    {
      "inputs": [],
      "name": "getWithdrawFeeCollected",
      "outputs": [
        {
          "internalType": "uint256",
          "name": "",
          "type": "uint256"
        }
      ],
      "stateMutability": "view",
      "type": "function"
    },
    {
      "inputs": [
        {
          "internalType": "address",
          "name": "initialOwner",
          "type": "address"
        }
      ],
      "name": "initialize",
      "outputs": [],
      "stateMutability": "nonpayable",
      "type": "function"
    },
    {
      "inputs": [
        {
          "internalType": "uint256",
          "name": "_taxaInicial",
          "type": "uint256"
        }
      ],
      "name": "initializeV2",
      "outputs": [],
      "stateMutability": "nonpayable",
      "type": "function"
    },
    {
      "inputs": [],
      "name": "initializeV3",
      "outputs": [],
      "stateMutability": "nonpayable",
      "type": "function"
    },
    {
      "inputs": [],
      "name": "isPaused",
      "outputs": [
        {
          "internalType": "bool",
          "name": "",
          "type": "bool"
        }
      ],
      "stateMutability": "view",
      "type": "function"
    },
    {
      "inputs": [
        {
          "internalType": "address",
          "name": "",
          "type": "address"
        }
      ],
      "name": "isWhitelisted",
      "outputs": [
        {
          "internalType": "bool",
          "name": "",
          "type": "bool"
        }
      ],
      "stateMutability": "view",
      "type": "function"
    },
    {
      "inputs": [],
      "name": "liquidityPOL",
      "outputs": [
        {
          "internalType": "uint256",
          "name": "",
          "type": "uint256"
        }
      ],
      "stateMutability": "view",
      "type": "function"
    },
    {
      "inputs": [],
      "name": "owner",
      "outputs": [
        {
          "internalType": "address",
          "name": "",
          "type": "address"
        }
      ],
      "stateMutability": "view",
      "type": "function"
    },
    {
      "inputs": [],
      "name": "proxiableUUID",
      "outputs": [
        {
          "internalType": "bytes32",
          "name": "",
          "type": "bytes32"
        }
      ],
      "stateMutability": "view",
      "type": "function"
    },
    {
      "inputs": [
        {
          "internalType": "string",
          "name": "_name",
          "type": "string"
        },
        {
          "internalType": "uint256",
          "name": "_age",
          "type": "uint256"
        },
        {
          "internalType": "string",
          "name": "_country",
          "type": "string"
        }
      ],
      "name": "registerRequest",
      "outputs": [],
      "stateMutability": "nonpayable",
      "type": "function"
    },
    {
      "inputs": [
        {
          "internalType": "uint256",
          "name": "_amount",
          "type": "uint256"
        }
      ],
      "name": "removeLiquidityPOL",
      "outputs": [],
      "stateMutability": "nonpayable",
      "type": "function"
    },
    {
      "inputs": [
        {
          "internalType": "uint256",
          "name": "_amount",
          "type": "uint256"
        }
      ],
      "name": "removeLiquidityToken",
      "outputs": [],
      "stateMutability": "nonpayable",
      "type": "function"
    },
    {
      "inputs": [],
      "name": "renounceOwnership",
      "outputs": [],
      "stateMutability": "nonpayable",
      "type": "function"
    },
    {
      "inputs": [
        {
          "internalType": "uint256",
          "name": "_amountTokens",
          "type": "uint256"
        }
      ],
      "name": "sellToken",
      "outputs": [],
      "stateMutability": "nonpayable",
      "type": "function"
    },
    {
      "inputs": [],
      "name": "tokenExchange",
      "outputs": [
        {
          "internalType": "contract IERC20",
          "name": "",
          "type": "address"
        }
      ],
      "stateMutability": "view",
      "type": "function"
    },
    {
      "inputs": [],
      "name": "totalWithdrawFeeCollected",
      "outputs": [
        {
          "internalType": "uint256",
          "name": "",
          "type": "uint256"
        }
      ],
      "stateMutability": "view",
      "type": "function"
    },
    {
      "inputs": [
        {
          "internalType": "address",
          "name": "newOwner",
          "type": "address"
        }
      ],
      "name": "transferOwnership",
      "outputs": [],
      "stateMutability": "nonpayable",
      "type": "function"
    },
    {
      "inputs": [],
      "name": "unBreakContract",
      "outputs": [],
      "stateMutability": "nonpayable",
      "type": "function"
    },
    {
      "inputs": [
        {
          "internalType": "uint256",
          "name": "_newFeeExchange",
          "type": "uint256"
        }
      ],
      "name": "updateFeeExchange",
      "outputs": [],
      "stateMutability": "nonpayable",
      "type": "function"
    },
    {
      "inputs": [
        {
          "internalType": "address",
          "name": "_newTokenAddress",
          "type": "address"
        }
      ],
      "name": "updateTokenExchange",
      "outputs": [],
      "stateMutability": "nonpayable",
      "type": "function"
    },
    {
      "inputs": [
        {
          "internalType": "uint256",
          "name": "_newFee",
          "type": "uint256"
        }
      ],
      "name": "updateWithdrawFee",
      "outputs": [],
      "stateMutability": "nonpayable",
      "type": "function"
    },
    {
      "inputs": [
        {
          "internalType": "address",
          "name": "newImplementation",
          "type": "address"
        },
        {
          "internalType": "bytes",
          "name": "data",
          "type": "bytes"
        }
      ],
      "name": "upgradeToAndCall",
      "outputs": [],
      "stateMutability": "payable",
      "type": "function"
    },
    {
      "inputs": [
        {
          "internalType": "uint256",
          "name": "_valueRequested",
          "type": "uint256"
        }
      ],
      "name": "withdraw",
      "outputs": [],
      "stateMutability": "nonpayable",
      "type": "function"
    },
    {
      "inputs": [],
      "name": "withdrawFee",
      "outputs": [
        {
          "internalType": "uint256",
          "name": "",
          "type": "uint256"
        }
      ],
      "stateMutability": "view",
      "type": "function"
    },
    {
      "inputs": [],
      "name": "withdrawFeeAdmin",
      "outputs": [],
      "stateMutability": "nonpayable",
      "type": "function"
    }
  ],
  "bytecode": "0x60a060405230608052348015610013575f80fd5b5061001c610021565b6100d3565b7ff0c57e16840df040f15088dc2f81fe391c3923bec73e23a9662efc9c229c6a00805468010000000000000000900460ff16156100715760405163f92ee8a960e01b815260040160405180910390fd5b80546001600160401b03908116146100d05780546001600160401b0319166001600160401b0390811782556040519081527fc7f505b2f371ae2175ee4913f4499e1f2633a7b5936321eed1cdaeb6115181d29060200160405180910390a15b50565b608051611f5f6100f95f395f818161172f0152818161175801526118970152611f5f5ff3fe60806040526004361061021d575f3560e01c8063920c50e61161011e578063ca8ee554116100a8578063e941fa781161006d578063e941fa78146105db578063f2fde38b146105f0578063f39166a51461060f578063f89f4e771461062e578063fb7db22c1461064d575f80fd5b8063ca8ee55414610556578063d0e30db014610575578063dad70b0b1461057d578063daf635de14610591578063e3d670d7146105b0575f80fd5b8063a4821719116100ee578063a4821719146104c5578063ad3cb1cc146104cd578063b187bd261461050a578063b868b2e414610523578063c4d66de814610537575f80fd5b8063920c50e61461044957806393423e9c1461045d57806394bac87e14610491578063a080551f146104a6575f80fd5b80635b89670c116101aa5780637c0a893d1161016f5780637c0a893d146103c45780637c7b3b8c146103e35780637dd5d0e5146104025780638d716a34146104165780638da5cb5b14610435575f80fd5b80635b89670c14610331578063636f6159146103505780636e8e6c1414610387578063715018a61461039c57806371b70748146103b0575f80fd5b806338e454b1116101f057806338e454b1146102995780633af32abf146102ad5780634f1ef286146102eb57806352d1902d146102fe5780635b4e128c14610312575f80fd5b80631540aa89146102215780632397e4d7146102445780632e1a7d4d146102655780632f6a1a2a14610284575b5f80fd5b34801561022c575f80fd5b506001545b6040519081526020015b60405180910390f35b34801561024f575f80fd5b5061026361025e366004611b7c565b610655565b005b348015610270575f80fd5b5061026361027f366004611b7c565b610893565b34801561028f575f80fd5b5061023160075481565b3480156102a4575f80fd5b50610263610aa0565b3480156102b8575f80fd5b506102db6102c7366004611bae565b60056020525f908152604090205460ff1681565b604051901515815260200161023b565b6102636102f9366004611c55565b610b62565b348015610309575f80fd5b50610231610b81565b34801561031d575f80fd5b5061026361032c366004611b7c565b610b9c565b34801561033c575f80fd5b5061026361034b366004611b7c565b610c5c565b34801561035b575f80fd5b5060065461036f906001600160a01b031681565b6040516001600160a01b03909116815260200161023b565b348015610392575f80fd5b5061023160025481565b3480156103a7575f80fd5b50610263610d4c565b3480156103bb575f80fd5b50610231610d5f565b3480156103cf575f80fd5b506102636103de366004611bae565b610d6f565b3480156103ee575f80fd5b506102636103fd366004611cd1565b610d97565b34801561040d575f80fd5b50610231610e7b565b348015610421575f80fd5b50610263610430366004611b7c565b610eea565b348015610440575f80fd5b5061036f610fb1565b348015610454575f80fd5b50610263610fdf565b348015610468575f80fd5b50610231610477366004611bae565b6001600160a01b03165f9081526020819052604090205490565b34801561049c575f80fd5b5061023160085481565b3480156104b1575f80fd5b506102636104c0366004611b7c565b611027565b610263611113565b3480156104d8575f80fd5b506104fd604051806040016040528060058152602001640352e302e360dc1b81525081565b60405161023b9190611d39565b348015610515575f80fd5b506004546102db9060ff1681565b34801561052e575f80fd5b50610263611336565b348015610542575f80fd5b50610263610551366004611bae565b611370565b348015610561575f80fd5b50610263610570366004611b7c565b611469565b6102636114ad565b348015610588575f80fd5b50610263611578565b34801561059c575f80fd5b506102636105ab366004611b7c565b6115bd565b3480156105bb575f80fd5b506102316105ca366004611bae565b5f6020819052908152604090205481565b3480156105e6575f80fd5b5061023160015481565b3480156105fb575f80fd5b5061026361060a366004611bae565b6115fa565b34801561061a575f80fd5b50610263610629366004611bae565b611637565b348015610639575f80fd5b50610263610648366004611bae565b611661565b61026361168c565b60045460ff16156106815760405162461bcd60e51b815260040161067890611d85565b60405180910390fd5b335f9081526005602052604090205460ff166106af5760405162461bcd60e51b815260040161067890611de2565b6003546002036106d15760405162461bcd60e51b815260040161067890611e2c565b60026003555f8190036106f75760405163162908e360e11b815260040160405180910390fd5b5f600754826107069190611e77565b90508060085410156107395760085460405163f6a9b92160e01b8152610678918391600401918252602082015260400190565b6006546040516323b872dd60e01b8152336004820152306024820152604481018490525f916001600160a01b0316906323b872dd906064016020604051808303815f875af115801561078d573d5f803e3d5ffd5b505050506040513d601f19601f820116820180604052508101906107b19190611e96565b9050806107d1576040516312171d8360e31b815260040160405180910390fd5b8160085f8282546107e29190611eb5565b90915550506040515f90339084908381818185875af1925050503d805f8114610826576040519150601f19603f3d011682016040523d82523d5f602084013e61082b565b606091505b505090508061084d576040516312171d8360e31b815260040160405180910390fd5b604080518581526020810185905233917fdd73686403cf2d37d399d32aa0be7cc16f739561af09f5ddf2ccdc238a794e98910160405180910390a2505060016003555050565b6003546002036108b55760405162461bcd60e51b815260040161067890611e2c565b600260035560045460ff16156108dd5760405162461bcd60e51b815260040161067890611d85565b335f9081526005602052604090205460ff1661090b5760405162461bcd60e51b815260040161067890611de2565b805f0361092b5760405163162908e360e11b815260040160405180910390fd5b335f9081526020819052604090205481111561097557335f908152602081905260409081902054905163cf47918160e01b8152610678918391600401918252602082015260400190565b6001548190156109d75760015482116109af576001546040516302a1c29f60e11b8152610678918491600401918252602082015260400190565b6001546109bc9083611eb5565b905060015460025f8282546109d19190611ec8565b90915550505b335f90815260208190526040812080548492906109f5908490611eb5565b90915550506040515f90339083908381818185875af1925050503d805f8114610a39576040519150601f19603f3d011682016040523d82523d5f602084013e610a3e565b606091505b5050905080610a60576040516312171d8360e31b815260040160405180910390fd5b60405182815233907f68fed7edf5c5c0d4c848de80a312fe0ac0b0ef3d37fc533a5c3923302d60bbe2906020015b60405180910390a25050600160035550565b60035f610aab6116fa565b8054909150600160401b900460ff1680610ad35750805467ffffffffffffffff808416911610155b15610af15760405163f92ee8a960e01b815260040160405180910390fd5b805468ffffffffffffffffff191667ffffffffffffffff8316908117600160401b1782556004805460ff19169055815460ff60401b191682556040519081527fc7f505b2f371ae2175ee4913f4499e1f2633a7b5936321eed1cdaeb6115181d2906020015b60405180910390a15050565b610b6a611724565b610b73826117c8565b610b7d82826117d0565b5050565b5f610b8a61188c565b505f80516020611f0a83398151915290565b60025f610ba76116fa565b8054909150600160401b900460ff1680610bcf5750805467ffffffffffffffff808416911610155b15610bed5760405163f92ee8a960e01b815260040160405180910390fd5b805468ffffffffffffffffff191667ffffffffffffffff8316908117600160401b1782556001848155600355815460ff60401b191682556040519081527fc7f505b2f371ae2175ee4913f4499e1f2633a7b5936321eed1cdaeb6115181d29060200160405180910390a1505050565b610c646118d5565b805f03610c845760405163162908e360e11b815260040160405180910390fd5b6006546040516323b872dd60e01b8152336004820152306024820152604481018390525f916001600160a01b0316906323b872dd906064016020604051808303815f875af1158015610cd8573d5f803e3d5ffd5b505050506040513d601f19601f82011682018060405250810190610cfc9190611e96565b905080610d1c576040516312171d8360e31b815260040160405180910390fd5b6040518281527f07e1db18fa72b20d4bb27c6586b81c80c0747d3ab1ac37203d90761537ea9d6090602001610b56565b610d546118d5565b610d5d5f611907565b565b5f610d686118d5565b5060025490565b610d776118d5565b6001600160a01b03165f908152600560205260409020805460ff19169055565b335f9081526005602052604090205460ff1615610dc95760405163d14875ef60e01b8152336004820152602401610678565b60408051606081018252848152602081018490529081018290526012831015610e15576020810151604051634d025adb60e11b8152600481019190915260126024820152604401610678565b8051515f03610e37576040516312c0155560e21b815260040160405180910390fd5b8060400151515f03610e5c576040516312c0155560e21b815260040160405180910390fd5b5050335f908152600560205260409020805460ff191660011790555050565b6006546040516370a0823160e01b81523060048201525f916001600160a01b0316906370a0823190602401602060405180830381865afa158015610ec1573d5f803e3d5ffd5b505050506040513d601f19601f82011682018060405250810190610ee59190611edb565b905090565b610ef26118d5565b806008541015610f235760085460405163f6a9b92160e01b8152610678918391600401918252602082015260400190565b8060085f828254610f349190611eb5565b909155505f9050610f43610fb1565b6001600160a01b0316826040515f6040518083038185875af1925050503d805f8114610f8a576040519150601f19603f3d011682016040523d82523d5f602084013e610f8f565b606091505b5050905080610b7d576040516312171d8360e31b815260040160405180910390fd5b7f9016d09d72d40fdae2fd8ceac6b6234c7706214fd39c1cd1e609a0528c199300546001600160a01b031690565b610fe76118d5565b6004805460ff191690556040513381527f5db9ee0a495bf2e6ff9c91a7834c1ba4fdd244a5e8aa4e537bd38aeae4b073aa906020015b60405180910390a1565b61102f6118d5565b5f611038610e7b565b9050818110156110655760405163035fbe7760e31b81526004810183905260248101829052604401610678565b6006545f906001600160a01b031663a9059cbb611080610fb1565b6040516001600160e01b031960e084901b1681526001600160a01b039091166004820152602481018690526044016020604051808303815f875af11580156110ca573d5f803e3d5ffd5b505050506040513d601f19601f820116820180604052508101906110ee9190611e96565b90508061110e576040516312171d8360e31b815260040160405180910390fd5b505050565b60045460ff16156111365760405162461bcd60e51b815260040161067890611d85565b335f9081526005602052604090205460ff166111645760405162461bcd60e51b815260040161067890611de2565b6003546002036111865760405162461bcd60e51b815260040161067890611e2c565b6002600355345f036111ab5760405163162908e360e11b815260040160405180910390fd5b5f600754346111ba9190611ef2565b6006546040516370a0823160e01b81523060048201529192505f916001600160a01b03909116906370a0823190602401602060405180830381865afa158015611205573d5f803e3d5ffd5b505050506040513d601f19601f820116820180604052508101906112299190611edb565b9050818110156112565760405163035fbe7760e31b81526004810183905260248101829052604401610678565b3460085f8282546112679190611ec8565b909155505060065460405163a9059cbb60e01b8152336004820152602481018490525f916001600160a01b03169063a9059cbb906044016020604051808303815f875af11580156112ba573d5f803e3d5ffd5b505050506040513d601f19601f820116820180604052508101906112de9190611e96565b9050806112fe576040516312171d8360e31b815260040160405180910390fd5b604080513481526020810185905233917f5798ec577126413c34eec76755f7164dc2f21b7d22d79c3c2a20d321dea24ba09101610a8e565b61133e6118d5565b6002545f8190036113625760405163e23c055560e01b815260040160405180910390fd5b5f6002819055610f43610fb1565b5f6113796116fa565b805490915060ff600160401b820416159067ffffffffffffffff165f811580156113a05750825b90505f8267ffffffffffffffff1660011480156113bc5750303b155b9050811580156113ca575080155b156113e85760405163f92ee8a960e01b815260040160405180910390fd5b845467ffffffffffffffff19166001178555831561141257845460ff60401b1916600160401b1785555b61141b86611977565b831561146157845460ff60401b19168555604051600181527fc7f505b2f371ae2175ee4913f4499e1f2633a7b5936321eed1cdaeb6115181d29060200160405180910390a15b505050505050565b6114716118d5565b60078190556040518181527f82d41f9f68110f06d5028e7fd153a0a39afde6686c8fc97bd6aebf75d0e0c020906020015b60405180910390a150565b60045460ff16156114d05760405162461bcd60e51b815260040161067890611d85565b335f9081526005602052604090205460ff166114fe5760405162461bcd60e51b815260040161067890611de2565b345f0361151e5760405163162908e360e11b815260040160405180910390fd5b335f908152602081905260408120805434929061153c908490611ec8565b909155505060405134815233907fd15c9547ea5c06670c0010ce19bc32d54682a4b3801ece7f3ab0c3f17106b4bb9060200160405180910390a2565b6115806118d5565b6004805460ff191660011790556040513381527f62e78cea01bee320cd4e420270b5ea74000d11b0c9f74754ebdbfc544b05a2589060200161101d565b6115c56118d5565b60018190556040518181527f9a1f74aeeb037eb3d45b22a56376dadd6ba6ded25ec3727e520415f6c76768a9906020016114a2565b6116026118d5565b6001600160a01b03811661162b57604051631e4fbdf760e01b81525f6004820152602401610678565b61163481611907565b50565b61163f6118d5565b600680546001600160a01b0319166001600160a01b0392909216919091179055565b6116696118d5565b6001600160a01b03165f908152600560205260409020805460ff19166001179055565b6116946118d5565b345f036116b45760405163162908e360e11b815260040160405180910390fd5b3460085f8282546116c59190611ec8565b90915550506040513481527f5c2e9f6f17b4238bb661689fe71a8e7e38b2bcd795e34b4dc8680cb430c6eb959060200161101d565b5f807ff0c57e16840df040f15088dc2f81fe391c3923bec73e23a9662efc9c229c6a005b92915050565b306001600160a01b037f00000000000000000000000000000000000000000000000000000000000000001614806117aa57507f00000000000000000000000000000000000000000000000000000000000000006001600160a01b031661179e5f80516020611f0a833981519152546001600160a01b031690565b6001600160a01b031614155b15610d5d5760405163703e46dd60e11b815260040160405180910390fd5b6116346118d5565b816001600160a01b03166352d1902d6040518163ffffffff1660e01b8152600401602060405180830381865afa92505050801561182a575060408051601f3d908101601f1916820190925261182791810190611edb565b60015b61185257604051634c9c8ce360e01b81526001600160a01b0383166004820152602401610678565b5f80516020611f0a833981519152811461188257604051632a87526960e21b815260048101829052602401610678565b61110e8383611988565b306001600160a01b037f00000000000000000000000000000000000000000000000000000000000000001614610d5d5760405163703e46dd60e11b815260040160405180910390fd5b336118de610fb1565b6001600160a01b031614610d5d5760405163118cdaa760e01b8152336004820152602401610678565b7f9016d09d72d40fdae2fd8ceac6b6234c7706214fd39c1cd1e609a0528c19930080546001600160a01b031981166001600160a01b03848116918217845560405192169182907f8be0079c531659141344cd1fd0a4f28419497f9722a3daafe3b4186f6b6457e0905f90a3505050565b61197f6119dd565b61163481611a02565b61199182611a0a565b6040516001600160a01b038316907fbc7cd75a20ee27fd9adebab32041f755214dbc6bffa90cc0225b39da2e5c2d3b905f90a28051156119d55761110e8282611a6d565b610b7d611b0d565b6119e5611b2c565b610d5d57604051631afcd79f60e31b815260040160405180910390fd5b6116026119dd565b806001600160a01b03163b5f03611a3f57604051634c9c8ce360e01b81526001600160a01b0382166004820152602401610678565b5f80516020611f0a83398151915280546001600160a01b0319166001600160a01b0392909216919091179055565b60605f611a7a8484611b45565b9050808015611a9b57505f3d1180611a9b57505f846001600160a01b03163b115b15611ab057611aa8611b58565b91505061171e565b8015611ada57604051639996b31560e01b81526001600160a01b0385166004820152602401610678565b3d15611aed57611ae8611b71565b611b06565b60405163d6bda27560e01b815260040160405180910390fd5b5092915050565b3415610d5d5760405163b398979f60e01b815260040160405180910390fd5b5f611b356116fa565b54600160401b900460ff16919050565b5f805f835160208501865af49392505050565b6040513d81523d5f602083013e3d602001810160405290565b6040513d5f823e3d81fd5b5f60208284031215611b8c575f80fd5b5035919050565b80356001600160a01b0381168114611ba9575f80fd5b919050565b5f60208284031215611bbe575f80fd5b611bc782611b93565b9392505050565b634e487b7160e01b5f52604160045260245ffd5b5f67ffffffffffffffff80841115611bfc57611bfc611bce565b604051601f8501601f19908116603f01168101908282118183101715611c2457611c24611bce565b81604052809350858152868686011115611c3c575f80fd5b858560208301375f602087830101525050509392505050565b5f8060408385031215611c66575f80fd5b611c6f83611b93565b9150602083013567ffffffffffffffff811115611c8a575f80fd5b8301601f81018513611c9a575f80fd5b611ca985823560208401611be2565b9150509250929050565b5f82601f830112611cc2575f80fd5b611bc783833560208501611be2565b5f805f60608486031215611ce3575f80fd5b833567ffffffffffffffff80821115611cfa575f80fd5b611d0687838801611cb3565b9450602086013593506040860135915080821115611d22575f80fd5b50611d2f86828701611cb3565b9150509250925092565b5f602080835283518060208501525f5b81811015611d6557858101830151858201604001528201611d49565b505f604082860101526040601f19601f8301168501019250505092915050565b6020808252603b908201527f454d455247454e4349413a204f2062616e636f2065737461207061757361646f60408201527f21204d6f76696d656e7461636f657320626c6f717565616461732e0000000000606082015260800190565b6020808252602a908201527f41636573736f206e656761646f3a20466163612073657520636164617374726f604082015269207072696d6569726f2160b01b606082015260800190565b6020808252601f908201527f5265656e7472616e637947756172643a207265656e7472616e742063616c6c00604082015260600190565b634e487b7160e01b5f52601160045260245ffd5b5f82611e9157634e487b7160e01b5f52601260045260245ffd5b500490565b5f60208284031215611ea6575f80fd5b81518015158114611bc7575f80fd5b8181038181111561171e5761171e611e63565b8082018082111561171e5761171e611e63565b5f60208284031215611eeb575f80fd5b5051919050565b808202811582820484141761171e5761171e611e6356fe360894a13ba1a3210667c828492db98dca3e2076cc3735a920a3ca505d382bbca2646970667358221220f45a40a1aed1e9a292e6cf8b5a4ea8dd4c36002ee3e7f71d24216e1cfaea1c2364736f6c63430008180033",
  "linkReferences": {},
  "deployedLinkReferences": {}
}